:100000000C9462000C948A000C948A000C948A0070
:100010000C948A000C948A000C948A000C948A0038
:100020000C948A000C948A000C948A000C948A0028
:100030000C948A000C9410070C948A000C948A008B
:100040000C9475060C948A000C94E3060C94BD067F
:100050000C948A000C948A000C948A000C948A00F8
:100060000C948A000C948A000000000024002700F1
:100070002A0000000000250028002B0000000000DE
:1000800023002600290004040404040404040202DA
:100090000202020203030303030301020408102007
:1000A0004080010204081020010204081020000012
:1000B0000008000201000003040700000000000027
:1000C0000000370711241FBECFEFD8E0DEBFCDBF41
:1000D00027E0A8E7B5E001C01D92AF38B207E1F70D
:1000E00015E0A0E0B1E0E8E8F8E302C005900D9269
:1000F000A837B107D9F710E0C2E6D0E004C02197D5
:10010000FE010E94DC18C136D107C9F70E94E6073C
:100110000C94421C0C940000E0915206F09153069E
:100120000190F081E02D682F82E596E009948330FC
:1001300081F028F4813099F08230A9F00895873059
:10014000A9F08830C9F08430B1F4809180008F7DAF
:1001500003C0809180008F7780938000089584B5DC
:100160008F7784BD089584B58F7DFBCF8091B000DB
:100170008F778093B00008958091B0008F7DF9CF84
:10018000CF93DF93282F30E0F901E255FF4F8491A0
:10019000F901E656FF4FD491F901EA57FF4FC49198
:1001A000CC23A1F081110E949700EC2FF0E0EE0F1C
:1001B000FF1FE458FF4FA591B491EC91ED2381E02E
:1001C00090E009F480E0DF91CF91089580E090E025
:1001D000FACF1F93CF93DF93162F282F30E0F9012A
:1001E000E255FF4F8491F901E656FF4FD491F90192
:1001F000EA57FF4FC491CC23A1F081110E949700D0
:10020000EC2FF0E0EE0FFF1FEE58FF4FA591B491D9
:100210008FB7F894EC91111108C0D095DE23DC93D0
:100220008FBFDF91CF911F910895DE2BF8CFCF9331
:10023000DF9390E0FC01E656FF4F24918A579F4FD1
:10024000FC0184918823C9F090E0880F991FFC017C
:10025000E859FF4FA591B491FC01EE58FF4FC591AD
:10026000D49161110DC09FB7F8948C912095822391
:100270008C938881282328839FBFDF91CF91089595
:10028000623051F49FB7F8943C91822F809583237C
:100290008C93E8812E2BEFCF8FB7F894EC912E2B17
:1002A0002C938FBFEACFFF920F931F93CF93DF93CF
:1002B000EC01162FF72E80E094E09B838A8380E088
:1002C00090E0A0E8B0E489879A87AB87BC8701E01B
:1002D0000D871E8A1F8A188E198E1A8E60E0812F54
:1002E0000E94170160E0812F0E94E9001883F982C3
:1002F00008878AE097EDA3E2BCE38C839D83AE83FD
:10030000BF83DF91CF911F910F91FF9008951F93AD
:10031000CF93DF93182FEB0161E00E941701209724
:1003200039F460E0812FDF91CF911F910C94E900A7
:10033000CF3FD10511F461E0F5CFE12FF0E0E255B8
:10034000FF4FE491E33031F140F4E130B1F0E230BD
:10035000E1F0C038D1052CF3EECFE73029F1E830D9
:1003600059F1E430B1F78091800080628093800081
:10037000D0938B00C0938A0004C084B5806884BD8C
:10038000C7BDDF91CF911F91089584B5806284BD70
:10039000C8BDF7CF80918000806880938000D093A3
:1003A0008900C0938800EDCF8091B0008068809371
:1003B000B000C093B300E5CF8091B000806280931D
:1003C000B000C093B400DDCF8E3008F08E5087703F
:1003D000806480937C0080917A00806480937A00AE
:1003E00080917A0086FDFCCF809178009091790011
:1003F0000895789484B5826084BD84B5816084BD9D
:1004000085B5826085BD85B5816085BDEEE6F0E08D
:10041000808181608083E1E8F0E0108280818260E9
:100420008083808181608083E0E8F0E0808181606A
:100430008083E1EBF0E0808184608083E0EBF0E09A
:10044000808181608083EAE7F0E08081846080833E
:1004500080818260808380818160808380818068E8
:1004600080831092C10008953FB7F89480914E06A2
:1004700090914F06A0915006B091510626B5A89BC9
:1004800005C02F3F19F00196A11DB11D3FBFBA2F26
:10049000A92F982F8827BC01CD01620F711D811DE6
:1004A000911D42E0660F771F881F991F4A95D1F76B
:1004B00008952FB7F89460914A0670914B06809189
:1004C0004C0690914D062FBF08951F93CF93DF9355
:1004D000EC01162FE881F9810280F381E02D42E0E2
:1004E00050E0099519871886E881F9810190F0811B
:1004F000E02DCE010995882319F0888583608887CF
:100500000E9459026A837B838C839D83DF91CF9104
:100510001F91089580914706909148060196909307
:100520004806809347060895CF92DF92EF92FF929C
:100530000F931F93CF93DF937C016A0110E000E0DB
:100540000C151D0581F0EB01D701ED91FC91019097
:10055000F081E02D6991C7010995892B21F00F5F8A
:100560001F4FBE01EDCFC801DF91CF911F910F91B9
:10057000FF90EF90DF90CF900895FC01538D448D54
:10058000252F30E0842F90E0821B930B541710F03E
:10059000CF96089501970895FC01918D828D98174B
:1005A00061F0A28DAE0FBF2FB11D5D968C91928D23
:1005B0009F5F9F73928F90E008958FEF9FEF089554
:1005C000FC01918D828D981731F0828DE80FF11D1D
:1005D000858D90E008958FEF9FEF0895FC01918D38
:1005E000228D892F90E0805C9F4F821B91098F7331
:1005F0009927089582E596E00E94EE0221E0892B7A
:1006000009F420E0822F089580E090E0892B29F002
:100610000E94FA0281110C9400000895FC01A48D3F
:10062000A80FB92FB11DA35ABF4F2C91848D90E014
:1006300001968F739927848FA689B7892C93A089F7
:10064000B1898C91837080648C93938D848D981381
:1006500006C00288F389E02D80818F7D8083089514
:10066000EF92FF920F931F93CF93DF93EC01F62E3F
:1006700081E0888F9B8D8C8D98131AC0E889F98949
:10068000808185FF15C09FB7F894EE89FF8960834C
:10069000E889F98980818370806480839FBF81E0CD
:1006A00090E0DF91CF911F910F91FF90EF9008950F
:1006B0000B8D10E00F5F1F4F0F731127E02E8C8DF5
:1006C0008E110CC00FB607FCFACFE889F98980813A
:1006D00085FFF5CFCE010E940E03F1CFEB8DEC0F1D
:1006E000FD2FF11DE35AFF4FF0829FB7F8940B8F57
:1006F000EA89FB8980818062D0CFCF93DF93EC01C0
:10070000888D8823B9F0AA89BB89E889F9898C91F9
:1007100085FD03C0808186FD0DC00FB607FCF7CFB5
:100720008C9185FFF2CF808185FFEDCFCE010E94B5
:100730000E03E9CFDF91CF910895CF92DF92EF9230
:10074000FF921F93CF93DF93EC0188858B7F88877F
:10075000E881F9810190F081E02DCE010995182FF3
:100760008885869581701817B1F00E9459026A83B6
:100770007B838C839D83888592E089278887888501
:1007800082FB882780F9DF91CF911F91FF90EF9036
:10079000DF90CF9008950E945902CA80DB80EC80E0
:1007A000FD80AB01BC014C195D096E097F098E818A
:1007B0009F81B0E0A0E0481759076A077B07F8F26D
:1007C000888581701817D9F20E9459026A837B8349
:1007D0008C839D83888591E08927846088870E9427
:1007E00059026A877B878C879D87C9CF862F642FA4
:1007F0000C941701FC0181850E94C00021E0892B27
:1008000009F420E0822F08952F923F924F925F9239
:100810006F927F928F929F92AF92BF92CF92DF9210
:10082000EF92FF921F93CF93DF93CDB7DEB7289758
:100830000FB6F894DEBF0FBECDBF98878F83DC0163
:100840008C910E94E4017C01EF81F885948F838F65
:10085000258D368D3A83298330A3278F1085112368
:1008600069F18585882351F1B7010F2C000C880BA5
:10087000990B0E941B1B2B013C01AF81B885199677
:100880008D909D90AD90BC901C97AC019B01C501D3
:10089000B4010E94CB1B18160CF0B0C0B701660F54
:1008A000771F072E000C880B990B0E941B1BA501BC
:1008B00094010E94FF190E94E31A7B01AF81B88561
:1008C0001E964D905D906D907C905197B701FF0CF6
:1008D000880B990B0E941B1BA30192010E94FF1918
:1008E0004B015C0120E030E0A9010E94CB1B1816EF
:1008F0000CF0A9C0C501B4010E94EA1A1B01EF81E6
:10090000F885C688D788E08CF18CA7019601C501CF
:10091000B4010E94FF192DEC3CEC4CEC5EE30E940C
:10092000D01BA70196010E94001A6B017C01AF81C8
:10093000B8855696CD92DD92ED92FC92599711238F
:1009400009F485C020E030E0A9010E94CB1B1816F5
:1009500024F0F7FAF094F7F8F094AF81B88519967F
:100960008D919D910D90BC91A02D8B839C83AD8327
:10097000BE8311E0A7019601BC01CD010E94CB1BF3
:1009800018160CF010E0EF81F885128FA701960180
:100990006B817C818D819E810E94CB1B18160CF08F
:1009A00056C0C301B2010E94E31AAF81B8855E96BA
:1009B0007C936E935D9781E0E981FA81E617F707F2
:1009C00009F480E0AF81B88591968C9328960FB694
:1009D000F894DEBF0FBECDBFDF91CF911F91FF9086
:1009E000EF90DF90CF90BF90AF909F908F907F90CF
:1009F0006F905F904F903F902F900895EF81F88512
:100A0000C280D380B6010D2C000C880B990B0E947C
:100A10001B1BA50194010E94FF19A30192010E94D2
:100A20006C1A87FF4BCFB701660F771F6C197D09D2
:100A3000072E000C880B990B0E941B1BA50194012B
:100A40000E94001A38CFC501B401905855CFB101AA
:100A500090E080E00E94191BAF81B88514962D911B
:100A60003D914D915C9117970E94D01B20E030E0A2
:100A700040E85FE30E94001A9B01AC0160E070E077
:100A800080E89FE30E94711A9B01AC0160E070E076
:100A900080E89FE30E94FF199B01AC010E94001AAD
:100AA0006B017C0120E030E040E85FE30E94CB1B5B
:100AB000181634F4C12CD12C80E8E82E8FE3F82EE0
:100AC000A7019601C501B4010E94D01BA3019201A8
:100AD0000E94001A6B017C01EF81F885C686D786DB
:100AE000E08AF18A20E030E0A9010E946C1A87FFB9
:100AF0000FC0AF81B8851E961D921D921D921C924B
:100B00005197EF81F88566857785808991894BCFEC
:100B1000EF81F8856281738161507109072E000CA5
:100B2000880B990B0E941B1B4B015C01AC019B01C4
:100B3000C701B6010E94CB1B18161CF7AF81B88500
:100B40001E968D929D92AD92BC925197DACF8EBD3A
:100B500000000DB407FEFDCF8EB50895CF93C42FCE
:100B6000679566276795652B606181110CC085B11B
:100B7000817185B9862F0E94A7058C2F0E94A70539
:100B80002A9ACF91089585B1817085B9862F0E94E8
:100B9000A7058C2F0E94A705299AF3CF009799F0FB
:100BA000FC0101900020E9F73197AF01481B590B78
:100BB000E0915206F09153060280F381E02DBC01D2
:100BC00082E596E0099490E080E00895CF93DF936A
:100BD0000E94CE05EC0180E793E00E94CE058C0FC9
:100BE0009D1FDF91CF9108958F929F92AF92BF92F8
:100BF000CF92DF92EF92FF920F931F93CF93DF93E9
:100C0000CDB7DEB7A1970FB6F894DEBF0FBECDBF4C
:100C10006B017C0119A2423008F44AE08E010F5D9D
:100C20001F4F842E912CB12CA12CC701B601A50118
:100C300094010E94CE196A3014F5605DF801629348
:100C40008F01C814D904EA04FB04B0F4CF010E9458
:100C5000CE05A1960FB6F894DEBF0FBECDBFDF91D3
:100C6000CF911F910F91FF90EF90DF90CF90BF90A9
:100C7000AF909F908F90089569017A01D6CF695CFB
:100C8000DDCF0C94CE05CF92DF92EF92FF92CF93FF
:100C9000DF936C01990FEE08FF08F7FE17C08DE295
:100CA0000E948C00EC0166277727CB016C197D0927
:100CB0008E099F094AE00E94F4058C0F9D1FDF9169
:100CC000CF91FF90EF90DF90CF9008954AE0C70159
:100CD000B601DF91CF91FF90EF90DF90CF900C9411
:100CE000F4050C948E190C9486191F921FB61F924E
:100CF00011242F933F938F939F93AF93BF93809132
:100D00004A0690914B06A0914C06B0914D06309149
:100D1000490623E0230F2D3750F50196A11DB11D83
:100D20002093490680934A0690934B06A0934C0665
:100D3000B0934D0680914E0690914F06A0915006BB
:100D4000B09151060196A11DB11D80934E0690935E
:100D50004F06A0935006B0935106BF91AF919F915B
:100D60008F913F912F911F901FBE1F90189526E8DD
:100D7000230F0296A11DB11DD3CF1F920F920FB664
:100D80000F9211242F933F934F935F936F937F9311
:100D90008F939F93AF93BF93EF93FF9382E596E07A
:100DA0000E940E03FF91EF91BF91AF919F918F91A0
:100DB0007F916F915F914F913F912F910F900FBE57
:100DC0000F901F9018952F932FB72F938F939F936A
:100DD000EF93FF93E0916206F09163068081E091CA
:100DE0006806F091690682FD19C0908180916B06BA
:100DF0008F5F8F7320916C06821741F0E0916B0634
:100E0000F0E0EE5AF94F958F80936B06FF91EF91CA
:100E10009F918F912F912FBF2F9118958081F6CFA1
:100E20001F920F920FB60F9211242F933F934F935F
:100E30005F936F937F938F939F93AF93BF93EF9342
:100E4000FF93E0917905F0917A050995FF91EF9173
:100E5000BF91AF919F918F917F916F915F914F91D2
:100E60003F912F910F900FBE0F901F901895CF9329
:100E7000DF93109255061092540688EE93E0A0E09E
:100E8000B0E08093560690935706A0935806B0930F
:100E900059068AE593E0909353068093520685ECB9
:100EA00090E090935F0680935E0684EC90E09093D0
:100EB00061068093600680EC90E0909363068093D7
:100EC000620681EC90E0909365068093640682EC64
:100ED00090E0909367068093660686EC90E090938E
:100EE00069068093680610926B0610926C06109249
:100EF0006D0610926E062CE633E030938207209345
:100F00008107109283071092840710928507109230
:100F100086078AE090E09093880780938707109275
:100F2000890710928A0730937407209373071092F1
:100F300075071092760710927707109278079093B2
:100F40007A078093790710927B0710927C07309381
:100F50006607209365071092670710926807109242
:100F6000690710926A0790936C0780936B07109241
:100F70006D0710926E0763E170E083E497E00E94D2
:100F8000530164E170E081E297E00E94530165E162
:100F900070E08FEF96E00E9453010E945902609327
:100FA000FB067093FC068093FD069093FE06CFEE41
:100FB000D6E00E945902699379938993999386E0C8
:100FC000CB3FD807B1F7DF91CF910895CDB7DEB70A
:100FD0006E970FB6F894DEBF0FBECDBF0E94F90129
:100FE000E0916206F091630682E08083E0915E0604
:100FF000F0915F061082E0916006F09161068FEC3F
:10100000808310926A06E0916606F091670686E09A
:101010008083E0916406F091650680818061808321
:10102000E0916406F0916506808188608083E0919C
:101030006406F0916506808180688083E091640693
:10104000F091650680818F7D80838FB68982F894C8
:1010500080917805811127C0E0E9F0E08491E4EA0D
:10106000F0E09491E82FF0E0EE0FFF1FE859FF4FFA
:10107000A591B491EC91E92321F461E08AE00E940A
:10108000E90061E08AE00E9417018CB580618CBDA7
:101090008CB580648CBD61E08DE00E94170161E039
:1010A0008BE00E941701809178058F5F809378050F
:1010B00099809FBE83E793E00E94E60588EA93E06B
:1010C0000E94E60589EF93E00E94E60584E394E040
:1010D0000E94E6058EE694E00E94E60582E793E032
:1010E0000E94E60580E1809381001092800080E6F6
:1010F00099E0909387008093860081E1809381003E
:101100008AE892E090937A058093790581E0809354
:101110006F0061E083E00E94170161E086E00E94B9
:10112000170161E085E00E94170161E084E00E9400
:10113000170161E087E00E94170161E081E10E94F0
:10114000170160E082E00E94170162E088E00E94DF
:10115000170162E082E10E94170161E08AE00E94CB
:10116000170161E089E00E94170160E080E10E94C0
:10117000170160E08FE00E94170160E08EE00E949E
:10118000170160E083E10E94170160E084E10E94A2
:10119000170160E085E10E94170161E082E00E9492
:1011A000E90062E070E081E897E00E94650222E3D6
:1011B000A22EB12CB0928807A092870768E070E059
:1011C00083E797E00E946502B0927A07A0927907C0
:1011D00062E170E085E697E00E946502B0926C07DC
:1011E000A0926B0761E08AE00E94E90061E089E07B
:1011F0000E94E90083E690E00E9473068E3109F4B4
:10120000C4C08AE794E00E94E60582E08093B605B8
:101210001092B50560E090E080E00E94710661E008
:1012200081E090E00E94710662E082E090E00E941E
:1012300071066091B60584E090E00E9471066091AD
:10124000B50585E090E00E9471066091B60586E0E4
:1012500090E00E9471066091B50587E090E00E94E1
:10126000710688E08093B60586E08093B50568E056
:1012700088E090E00E9471066091B50589E090E0F9
:101280000E94710667E088E290E00E94710622E405
:1012900031E03A832983ECE3AE2EE1E0BE2EF6E3A3
:1012A000CF2EF1E0DF2EA0E3EA2EA1E0FA2E0AE233
:1012B00011E0B8E46B2EB1E07B2E82E0582E9FE067
:1012C000492E33243A945092B6051092B505A9815F
:1012D000BA818D909D90BA83A98362E0C4010E9477
:1012E00071066091B505C40101960E947106F50171
:1012F000819091905F016091B605C4010E947106D2
:101300006091B505C40101960E947106D6018D90C9
:101310009D906D016091B605C4010E9471066091B7
:10132000B505C40101960E947106F7018190919064
:101330007F016091B605C4010E9471066091B505F8
:10134000C40101960E9471064092B6053092B5051F
:10135000D8018D909D908D016FE0C4010E947106AF
:101360006091B505C40101960E94710689809A803A
:101370006814790409F0A7CF8DE994E00E94E6058E
:101380006EE183E690E00E9471062EE431E03C8F2E
:101390002B8F48E451E05A8F498F8CE391E0988F6E
:1013A0008F8BA0E1B6E0B88BAF87E6E3F1E0FC8B72
:1013B000EB8B20E331E03E8B2D8B40EF55E05C87DB
:1013C0004B8786E196E09E838D83ACE1B6E0BE87D5
:1013D000AD87ECEDF5E0FA83E9832CE036E03A8B5B
:1013E000298B1E8E1D8E412C512C3201312C212C2B
:1013F000AB8DBC8D8D919D91BC8FAB8F0E94730680
:10140000082FE989FA898193FA8BE98B88E290E0C9
:101410000E947306182F80938C05A98DBA8DED90CC
:10142000FD90BA8FA98FC7010E947306D82E8093B2
:10143000B605C70101960E9473068093B505BD2CC1
:10144000A82EE981FA81A192B192FA83E983AF894A
:10145000B88DED90FD90B88FAF8BC7010E947306D9
:10146000D82E8093B605C70101960E94730680931B
:10147000B5059D2DEF85F88981939193F88BEF87C2
:10148000AB89BC89ED90FD90BC8BAB8BC7010E94F2
:101490007306D82E8093B605C70101960E94730685
:1014A0008093B505FD2CE82EED85FE85E192F19245
:1014B000FE87ED87AD89BE89CD90DD90BE8BAD8B6B
:1014C000C6010E947306982E8093B605C601019648
:1014D0000E9473068093B505D92CC82EEB85FC8538
:1014E000C192D192FC87EB87ED8DFE8DE65DFE4FBC
:1014F00080809180C4010E9473068F838093B6051B
:10150000C40101960E9473068093B5058F80982DC3
:10151000AD81BE818D939D93BE83AD83ED8DFE8D98
:10152000E954FA4FB182A082ED8DFE8DE154FA4F5D
:10153000202F30E031832083ED8DFE8DEB55FA4F67
:10154000F182E082ED8DFE8DE356FA4FF182E0826A
:10155000ED8DFE8DEB56FA4FD182C082ED8DFE8D62
:10156000E357FA4F91838083812F90E0022C02C0D1
:10157000959587950A94E2F7F101EA5EFE4F80FFA8
:101580008EC1B1E0B0838CEB94E00E9441064AE04A
:10159000C301B2010E94F40585EC94E00E9441066B
:1015A000E989FA893197608170E090E080E04AE053
:1015B0000E94F40584ED94E00E944106E981FA81DD
:1015C0003297808191810E94430684EE94E00E94CC
:1015D0004106EF85F8893297808191810E94430608
:1015E00083EF94E00E944106ED85FE85329780816D
:1015F00091810E94430682E095E00E944106EB85BE
:10160000FC853297808191810E94430681E195E0BB
:101610000E9441060D811E81F801929182918F01F5
:101620000E94430685E295E00E944106D8016D9133
:101630007C91072E000C880B990B0E941B1B2DEC34
:101640003CEC4CEC53E40E94711A6B017C014B01A1
:101650005C01AC019B010E943D1C882309F421C15F
:1016600083E395E00E94CE058FE395E00E94E605B6
:101670003FEF231A330A4FEF441A540A640A740ADC
:101680008D8D9E8D02969E8F8D8F93E0291631044D
:1016900009F0AECE82E495E00E94410660918C058F
:1016A00070E090E080E042E00E94F40580E793E083
:1016B0000E94CE058FE595E00E94E6050E94340267
:1016C0008091470690914806892B09F45CC0F894F4
:1016D0008091470690914806789440913B0650913E
:1016E0003C0660913D0670913E06B0E0A0E0480FD8
:1016F000591F6A1F7B1F40933B0650933C06609323
:101700003D0670933E0640913F0650914006609121
:10171000410670914206480F591F6A1F7B1F409374
:101720003F065093400660934106709342064091F5
:101730004306509144066091450670914606480F55
:10174000591F6A1F7B1F40934306509344066093C2
:1017500045067093460640914706509148066091B1
:10176000490670914A06840F951FA61FB71F8093E4
:10177000470690934806A0934906B0934A061092F4
:1017800048061092470610913A06812E912C9A82B3
:101790008982113009F429C1112309F419C11230C9
:1017A00009F430C18091800581110C9463188091F7
:1017B0001101909112018930910514F40C942E18A6
:1017C000E981FA81EE0FFF1FDF01A853BA4F8D9117
:1017D0009C911197EA5FF94F2081318128173907D1
:1017E00051F18D919C9111979183808381E0809339
:1017F0007B050D90BC91A02D28E93BE84FEF5FEFF2
:101800000E94BB192EEF33E040E050E00E949C198B
:10181000205D3A484F4F5F4FA980BA80AA0CBB1C8D
:10182000AA0CBB1CC5018E5D994FDC012D933D9325
:101830004D935C9313971F5F133008F011C1109301
:101840003A0681E897E00E949D0383E797E00E94B3
:101850009D0385E697E00E949D0310918907912FD3
:10186000909591709093810580907B078982882D57
:10187000809581708093820590906D079D82292DBF
:101880002095217020938305209180052111FDC0B2
:10189000992309F4E8C01092000181E0EAC01082A7
:1018A00072CEA70196015F772F83388749875A87C1
:1018B0002FEF3FEF4FE75FE76F81788589859A8546
:1018C0000E943D1C81110FC02FEF3FEF4FE75FE7F4
:1018D0006F81788589859A850E946C1A18161CF488
:1018E00087E395E0BFCE2FEF3FEF4FE75FE4C701FF
:1018F000B6010E94CB1B18161CF48BE395E0B2CE08
:101900002FEF3FEF4FE75FECC701B6010E946C1A63
:1019100087FDF3CF20E030E0A901C701B6010E94A6
:101920006C1A87FF09C08DE20E948C0046015701A6
:10193000B7FAB094B7F8B0942AE037ED43EA5BE326
:10194000C501B4010E94001A4B015C010E94EA1A11
:101950006B017C010E94191B9B01AC01C501B40104
:101960000E94FF194B015C014AE0C701B6010E94C9
:10197000F4058EE20E948C0020E030E040E251E469
:10198000C501B4010E94D01B4B015C010E94EA1A00
:101990006B01F12CE12C4AE0C701B6010E94F4056D
:1019A000C701B6010E94191B9B01AC01C501B4011E
:1019B0000E94FF1920E030E040E251E40E94D01B79
:1019C0000E94EA1A90E080E04AE00E94F4054CCEC2
:1019D00083E497E00E94040480916007909161077E
:1019E0009093C9058093C805DDCE81E297E00E94FF
:1019F000040480913E0790913F079093CB0580931C
:101A0000CA05D0CE8FEF96E00E94040480911C0797
:101A100090911D079093CD058093CC05C3CE1130D6
:101A200081F4FC01EE0FFF1FE45EF94F20913E07A9
:101A300030913F07318320838B5F9E4FDC011C93E5
:101A4000FACE123009F0F7CE880F991FFC01E05151
:101A5000FA4F80911C0790911D0791838083EBCEF4
:101A600010923A06EECE882309F444C081E08093B8
:101A70000001809380050E94590260937C05709359
:101A80007D0580937E0590937F050E945902C0904A
:101A90007C05D0907D05E0907E05F0907F052601C5
:101AA0003701B0E24B0EB3E05B1E611C711C4601B6
:101AB0005701E4EC8E0EE9E09E1EA11CB11C4616F7
:101AC000570668067906E8F00E94590286169706BE
:101AD000A806B90608F580911101909112010997A5
:101AE0000CF49BC280917B05811197C281E08093A9
:101AF000870512C0AD80A0FC3CC082E0809300014D
:101B0000CCCE0E945902681579058A059B05E0F63E
:101B10008091000180930401498141235D81542318
:101B200050FF36C089E0809304010E94590222E3ED
:101B3000C20ED11CE11CF11C6C157D058E059F05A4
:101B4000C0F00E9459026C157D058E059F0508F0B6
:101B500067C20E945902641575058605970508F04D
:101B600071C20E945902681579058A059B0508F023
:101B70008BC2109280050E94590260937C0570937D
:101B80007D0580937E0590937F0589E08093000119
:101B9000EEE1EE2EE1E0FE2EF8E82F2EF5E03F2EEE
:101BA00044E855E05A834983610110E000E0BB241A
:101BB000B394D7018C91B2E0EB0EF11C0E94C000EF
:101BC00021E0009709F020E0F60121936F01892BB5
:101BD00009F068C2A981BA818C9181110AC0F8010B
:101BE000ED5EFE4FB082BC92809115018111B092E2
:101BF00016010F5F1F4F29813A812F5F3F4F3A83B4
:101C0000298303301105A9F646E151E05A8B498B2F
:101C100074E2E72E71E0F72E3A011A8219825524F8
:101C20005394D3018D913D01812C912C54018394C7
:101C3000098004C0880C991CAA1CBB1C0A94D2F70A
:101C4000882309F433C290918B05882D80958923D0
:101C500080938B05F10181911F01882391F0809180
:101C60008B0590E0098002C0959587950A94E2F76C
:101C700080FF20C290918B05882D809589238093C9
:101C80008B058091040129813A818217130691F412
:101C900080918B0590E0098002C0959587950A9404
:101CA000E2F780FF0BC290918B05882D80958923E8
:101CB00080938B0580918705882329F080918B057F
:101CC000882980938B05809111019091120149819F
:101CD0005A818417950791F50E94590209811A814A
:101CE000000F111F000F111F0151194FD8012D9125
:101CF0003D914D915C91621B730B840B950BE981B7
:101D0000FA81EF5FFE4F6F016039714081059105E7
:101D100058F0D6018C9185258C930E945902F801C8
:101D20006083718382839383D6018C91882309F425
:101D3000C9C180918B05882A80928B0580918B0583
:101D400090E0098002C0959587950A94E2F780FF9C
:101D5000C4C189818111BBC15C98F7018081F2E027
:101D6000EF0EF11C20911101309112016FEF70E024
:101D7000293031058CF0E981FA81EE0FFF1FEE5C0E
:101D8000F94F2081318144E0369527954A95E1F756
:101D90006FEF70E0621B730B0E94870129813A810B
:101DA0002F5F3F4F3A8329832330310509F039CF24
:101DB0000E9459020091FB061091FC062091FD063D
:101DC0003091FE06601B710B820B930B683E7340D3
:101DD00081059105E0F12091C705822F63E00E9403
:101DE000A118233008F08FC1892F90E08C01045F87
:101DF000194FD8016C91880F991FFC01E154FA4FDB
:101E0000FA83E983208131816217130671F0825BC6
:101E10009E4FDC018D919C910E947106F80180819A
:101E200090E0A981BA818D939C930E94590260939E
:101E3000FB067093FC068093FD069093FE0680914E
:101E4000C7058F5F863108F0BBC28093C705ECEDF4
:101E5000F5E0FC87EB8726E136E03E872D874CE1F5
:101E600056E0588B4F878CE096E09E8B8D8B1E82C0
:101E70001D82312C212CA989BA898D91BA8BA98B0D
:101E8000882309F1C101880F991F880F991FFC0150
:101E9000E55CF94F40815181628173818E5D994F7C
:101EA000DC010D911D912D913C9140175107620766
:101EB000730748F0108211821282138281E0F101CF
:101EC000ED5EFE4F8083EF85F889A191B191F88B8B
:101ED000EF8726E63EE00E94D5182EEF33E040E083
:101EE00050E00E949C1929013A01F9E94F0EF1E0F6
:101EF0005F1E611C711C58864F82AD85BE854D9258
:101F00005D92BE87AD870091110110911201F80119
:101F1000E25FFE4F80810B5F1E4F882309F453C29E
:101F2000ED81FE81E05FF94FA081B1812FEF3FE0AD
:101F30000E94D5182EEF33E040E050E00E949C193B
:101F4000ED81FE81E85FFE4F31832083F80110822E
:101F5000ED89FE898191FE8BED8B813009F405C5F9
:101F6000882309F437C2823009F40BC6BFEF2B1A5D
:101F70003B0AEB85FC853296FC87EB872D813E8101
:101F80002E5F3F4F3E832D8333E02316310409F04B
:101F900072CF809132069091330640913406509171
:101FA00035062091360630913706840F951F820F33
:101FB000931FB1010E94AD187093390660933806E3
:101FC000409138065091390661E081E00E94AE05EB
:101FD000409134065091350660E081E00E94AE05E4
:101FE000409132065091330661E080E00E94AE05D8
:101FF000409136065091370660E080E00E94AE05C1
:1020000080E090E0892B09F45BCB0E94FA028823E0
:1020100009F456CB0E94000053CB109287057CCD6B
:102020000E945902641575058605970508F091CD43
:10203000E0910001F0E0ED5EFE4F81E080831092C0
:102040007B0597CD0E945902681579058A059B0585
:1020500008F087CD80917B058111F1CFE0910001DF
:10206000F0E0EA5EFE4F808191E0892780838091D5
:10207000110190911201089714F789E090E0909374
:10208000120180931101DBCF80917B058111F5CF87
:10209000809111019091120109977CF380910001C8
:1020A00090E0EDCFE981FA811082A3CD80918B057C
:1020B0008829CECD80918B058829E1CD80918B0533
:1020C0008829F6CD80918B058094882235CE813089
:1020D00011F45F9842CE439840CE80918B0590E0FA
:1020E000098002C0959587950A94E2F780FD35CE68
:1020F0008981811102C05C9A30CE813011F45F9ADF
:102100002CCE439A2ACE8DEF820F833038F5892F5B
:1021100090E0880F991F8C0104521A4FF80120811A
:102120003181AC0149545A4F5A834983DA014D91A8
:102130005C914217530709F478CE3093B60520938B
:10214000B505885B9E4FFC01E080F180632FC701DD
:102150000E9471066091B505C70189C08AEF820FA0
:10216000833008F04EC0E92FF0E04F01880C991C35
:10217000880C991C94012E5D394F3A832983D9012B
:102180004D915D916D917C9113979F01220F331FAB
:10219000890103551A4FF801C080D1800D2C000C25
:1021A000EE08FF08C416D506E606F70609F43DCE8C
:1021B0004D915D916D917C9113979927872F762F83
:1021C000652F6093B605CD90DD90ED90FC90C092A8
:1021D000B505F901EE5BFE4FE080F180C7010E947A
:1021E00071066091B505C70101960E947106E981EB
:1021F000FA8180819181A281B381F80191838083EA
:1022000014CE87EF820F8330D8F5892E912C880C5D
:10221000991C8401005F194FD8018D919C91F401A4
:10222000EB55FA4FFA83E98320813181281739076A
:1022300009F4FBCD9093B6058093B505E091470670
:10224000F0914806EE0FFF1FE45CFE4F692F80817E
:1022500091810E947106E0914706F0914806EE0FC9
:10226000FF1FE45CFE4F808191816091B50501966E
:102270000E947106D8018D919C91E981FA81BECFAF
:1022800084EF820F833060F5892F90E0880F991FCB
:102290008C01045E194FD8012D913C91FC01E3564D
:1022A000FA4FFA83E983408151814217530709F4B9
:1022B000BCCD3093B6052093B5058A5C9E4FDC01FA
:1022C000ED90FC90632FC7010E9471066091B505E7
:1022D000C70101960E947106F80180819181A1CD0C
:1022E00081EF820F8330E8F4892F90E0880F991FE7
:1022F0008C0100511A4FF80120813181AC014B56FD
:102300005A4F5A834983DA014D915C914217530722
:1023100009F48BCD3093B6052093B505805D9E4FB3
:1023200012CF8EEE820F833088F5892E912C880C87
:10233000991C9A828982F401EA5EF94F8081918129
:10234000F401E357FA4F208131812817390709F446
:102350006CCD9093B6058093B505F401E65DFE4F14
:1023600000811181692FC8010E9471066091B50535
:10237000C80101960E947106F401E357FA4F9401D7
:102380002A5E394FD9018D919C9138CF253109F0C2
:102390004CCD9091160180918C05282F2170291722
:1023A00009F443CD992351F0816080938C056091AD
:1023B0008C0588E290E00E94710637CD8E7FF5CFC4
:1023C0001092C70544CDD8018C91882309F4C0CD63
:1023D0001C92BECD91012D5E3E4F6901D9018C91B9
:1023E000ED81FE81E05FF94F808091809A82898241
:1023F0005101AA0CBB1CAA0CBB1CB88EAF8A882347
:1024000009F4A9C0ED81FE81EA5FF94FA081B18195
:1024100028E93BE84FEF5FEF0E94BB192EEF33E056
:1024200040E050E00E949C19205D3A484F4F5F4FBA
:10243000C5018E5D994F7C01DC012D933D934D9339
:102440005C9313972D913D914D915C9182E056954F
:102450004795379527958A95D1F7032E000C440BA5
:10246000550B2451310941095109092C000CAA08C6
:10247000BB08C501B4010E9491182EEF33E040E083
:1024800050E00E949C192C5E3F4F4F4F5F4F8101DF
:10249000000F111FF801E250FA4F31832083D7015A
:1024A0002D913D914D915C9162E056954795379500
:1024B00027956A95D1F7032E000C440B550B2F502E
:1024C000310941095109C501B4010E9491182EEF4B
:1024D00033E040E050E00E949C19215F3F4F4F4F96
:1024E0005F4FF801EA50FA4F31832083F701808073
:1024F0009180A280B38072E0B694A7949794879459
:102500007A95D1F7ED81FE81E051FA4FA081B1813A
:1025100024E130E040E050E0281939094A095B091C
:102520000E94C6192EEF33E040E050E00E949C1953
:10253000820E931EA41EB51EF801E851FA4F918237
:102540008082EF89F88DE55CF94F1082118212824A
:102550001382D6011C92AF89B88DA55CB94FCD907E
:10256000DD90ED90FC9013979101220F331FF9013C
:10257000E250FA4F4081518170E060E0C416D50608
:10258000E606F706A0F40190F081E02D2D913D9133
:102590004D915C91D2010E94C6199F0150E040E02C
:1025A0000E949C193093E7052093E60527C0CD9043
:1025B000DD90ED90FC9013974081518170E060E0D8
:1025C000C416D506E606F70608F443C0CD90DD90A4
:1025D000ED90FC90408151812A503A4FF901808161
:1025E0009181840F951FB0E0A0E08C159D05AE058C
:1025F000BF0578F15092E7054092E605EF89F88D26
:10260000EE5DF94FC080D180E280F380EF89F88DD4
:10261000E55CF94F2081318142815381D2018F8065
:10262000988497FC1396B595A795B595A7950E94A4
:10263000C619A70196010E949C19ED81FE81E85FF1
:10264000FE4F80819181281B390B37FFAEC03C5F64
:10265000FCCFAF89B88DA55CB94FCD90DD90ED90E2
:10266000FC901397B101660F771FAB0142505A4F90
:10267000FA01008111819B012A503A4FF9018081B2
:102680009181800F911F4C01B12CA12C8C149D04C1
:10269000AE04BF04E0F4CD90DD90ED90FC90139774
:1026A000FA0180819181F9010081118168517A4F8D
:1026B000FB01A080B180800F911F8A0D9B1D4C01F2
:1026C000B12CA12C8C149D04AE04BF0458F5EF89E5
:1026D000F88DE55CF94FC080D180E280F3809101F4
:1026E000220F331FF901E250FA4F80819181F901E5
:1026F000EA50FA4F4081518128513A4FD9012D912A
:102700003C91840F951F820F931FB0E0A0E08C15C1
:102710009D05AE05BF0508F071CF1092E705109238
:10272000E6056CCFFA010190F081E02DFC8BEB8B7C
:10273000F9010190F081E02DFA8FE98FFB01008112
:102740001181FA0180809180F90180819181880E48
:10275000991EB12CA12C8D919D910D90BC91A02D15
:10276000A5019401281B390B4A0B5B0B6201052C58
:10277000000CEE08FF08C701B6010E949118E98D10
:10278000FA8D2B893C89E20FF31FE00FF11F9F01A7
:1027900050E040E0281939094A095B090E949C1958
:1027A0002C0D3D1D4E1D5F1DFDCE2F3F310511F03F
:1027B0000CF068C0220F331FF901EC5AFE4F008164
:1027C0001181EF89F88DEE5DF94F208131814281D1
:1027D00053818F89988D855C994FDC01CD90DD9078
:1027E000ED90FC90A981BA810E94C61920EB34E0DB
:1027F00040E050E00E94CE192B5F3F4F032E000CAB
:10280000440B550BC216D306E406F50608F060C06B
:102810005092E5054092E405EB85FC8520813181ED
:102820004101880C991C9A8289828091E6059091D9
:10283000E705243131050CF40CC3C9014497873DE9
:10284000914008F04AC0C090E605D090E7050D2CF5
:10285000000CEE08FF08032E000C440B550B24510E
:10286000310941095109B801110F880B990B6C19F5
:102870007D098E099F090E94911827ED31E040E003
:1028800050E05DC0C9019A958F3F910509F038F479
:10289000E0E0F2E0E21BF30BEE0FFF1F8ECFC90169
:1028A00092508F3F910509F060F4880F991FFC0149
:1028B000EC5AFE4F808191810FEF1FE0081B190B2E
:1028C00080CFE0E0F4E0E21BF30BEE0FFF1FF0CF50
:1028D0001092E5051092E4059FCFC9018B5E9140EF
:1028E000889748F429813A812E5C394FD901119695
:1028F0001C930E933BCB6091E4057091E505C901F3
:1029000083519240873D914038F56801110FEE08E0
:10291000FF08032E000C440B550B23513240410994
:102920005109072E000C880B990B6C197D098E0933
:102930009F090E9491182BEE31E040E050E00E9488
:102940009C19C20ED31EE41EF51EE981FA81EE5CCD
:10295000F94FD182C0820ACB29813A812E5C394F4E
:10296000D90111967C936E9301CBF101ED5EFE4F80
:1029700080814101880C991C880C991C9C8A8B8A47
:10298000882341F01082F401E55CF94F1082118236
:1029900012821382AB89BC89A55CB94F0D911D9140
:1029A0002D913C911397EB89FC89EE5DF94F4081A5
:1029B0005181628173816201052C000CEE08FF08D1
:1029C0008824992454018C189D08AE08BF08898278
:1029D0009A82AB82BC8276956795579547958080A1
:1029E0009180A280B380041715072607370708F0E7
:1029F00047C02D913D914D915C91C701B6010E9458
:102A00009118A501940156954795379527950E94F1
:102A10009C193093DB052093DA05EB89FC89EE5D88
:102A2000F94F80809180A280B3802B893C89255CFE
:102A3000394FD9012D913D914D915C9169817A81F8
:102A40008B819C810E949118A50194010E949C1980
:102A5000C20ED31EE41EF51EEB85FC8560817181DC
:102A60004101880C991C9A828982643171058CF528
:102A700094012E5C394FD9011196DC92CE9276CA20
:102A80008F829886A986BA8680809180A280B38042
:102A9000B694A794979487942D913D914D915C9114
:102AA000281939094A095B0969817A818B819C81DE
:102AB0000E9491182F81388549855A85281939092E
:102AC0004A095B090E949C192C0D3D1D4E1D5F1D7E
:102AD000A0CFCB014497873D9140C8F40D2C000C4A
:102AE000EE08FF082091DA053091DB05032E000C7B
:102AF000440B550B2C193D094E095F09072E000C9C
:102B0000880B990B6451710981099109B4CECB01ED
:102B10008B5E9140889768F48091DA059091DB058F
:102B200029813A812E5C394FD90111969C938E935D
:102B30001DCA4C185D089B0123513240273D31408E
:102B4000B8F4C090DA05D090DB050D2C000CEE082F
:102B5000FF089B01770F440B550B2351324041096D
:102B60005109052C000C66087708C301B201DDCEBF
:102B700029813A812E5C394FD90111965C924E928F
:102B8000F5C9ED81FE81EA5FF94FA081B18128E9A5
:102B90003BE84FEF5FEF0E94BB192FEF33E040E0BF
:102BA00050E00E949C19205D3A484F4F5F4F410111
:102BB000880C991C880C991C9C8A8B8AF401EE5D08
:102BC000F94F2083318342835383D8018C91811143
:102BD0001C92F101ED5EFE4F8081882309F4B0C0A4
:102BE0001082EB89FC89E55CF94F10821182128218
:102BF00013826201550CEE08FF08C114D104E104F0
:102C0000F10439F00E942E19A70196010E949C1927
:102C10006B01ED81FE81EC52FA4FD182C082EB85CF
:102C2000FC8520813181032E000C440B550B24516F
:102C3000310941095109A5E0B0E00E94BB1926ED18
:102C400033E040E050E00E949C192F5F3F4F4F4F10
:102C50005F4FED81FE81E253FA4F31832083EB8990
:102C6000FC89EE5DF94F608171818281938126E05C
:102C700030E040E050E00E94CE19C90163E070E00E
:102C80000E94C1186B01770FEE08FF08F4E1CF1A1C
:102C9000D108E108F108ED81FE81E05FF94FA081E4
:102CA000B181A70196010E94C6192EEF33E040E0E2
:102CB00050E00E949C192C5E3F4F4F4F5F4F8101A7
:102CC000000F111FF801E250FA4F31832083F80101
:102CD000EA50FA4F7FE0872E912C91828082ED811D
:102CE000FE81E051FA4FA081B181A70196010E94B7
:102CF000C6192EEF33E040E050E00E949C192C5E94
:102D00003F4F4F4F5F4FF801E851FA4F3183208317
:102D1000EF85F8893297A081B18126E63EE00E94D6
:102D2000D5182EEF33E040E050E00E949C19275662
:102D30003E4F4F4F5F4FED85FE85329731832083A5
:102D40001092E7051092E6052D813E8122533A4FFD
:102D500038872F83D9010D90BC91A02DBA83A98308
:102D60001A161B060CF062C0AB89BC89A55CB94F72
:102D7000CD90DD90ED90FC9013979101220F331FC1
:102D8000F901E250FA4F4081518170E060E04C154A
:102D90005D056E057F0508F45EC00190F081E02DB1
:102DA0002D913D914D915C91AD85BE8512970D9011
:102DB000BC91A02D0E94C6199F0150E040E00E94E6
:102DC0009C193093E7052093E6050B891C89055C67
:102DD000194FD801CD90DD90ED90FC90EB89FC89E6
:102DE000EE5DF94F608171818281938126E030E050
:102DF00040E050E00E94CE19032E000C440B550B0E
:102E00002C153D054E055F0588F41092E7051092DC
:102E1000E605D8011D921D921D921C92139789817F
:102E20009A810197EF81F88591838083AB85BC857A
:102E30008D919C914101880C991C9A8289828431E0
:102E400091050CF0CFC0ED81FE81EC52FA4F8081EC
:102E50009181940167CECD90DD90ED90FC90139719
:102E60004081518170E060E04C155D056E057F0585
:102E7000A0F4CD90DD90ED90FC90408151812A50DE
:102E80003A4FF90180819181840F951FB0E0A0E055
:102E90008C159D05AE05BF05D0F5AB89BC89A55C39
:102EA000B94FCD90DD90ED90FC9013979101220FDA
:102EB000331FA90142505A4FFA0100811181C90103
:102EC0008A509A4FFC0160817181600F711F4B0124
:102ED000B12CA12C8C149D04AE04BF0410F1EB891D
:102EE000FC89E55CF94F80819181A281B381F90170
:102EF000E250FA4F80819181F901EA50FA4F8081C6
:102F0000918128513A4FD9018D919C915ECFED85E9
:102F1000FE853297808191819093E7058093E60545
:102F200054CF8D909D90AD90BC901397FA01E080A6
:102F3000F180FC01C080D180B90168517A4FFB015A
:102F400000811181F601EE0DFF1DE00FF11F6F01F1
:102F5000F12CE12CC814D904EA04FB0408F4BFCF17
:102F6000ED85FE85329740805180052C000C660867
:102F70007708FA01A080B180FC0180809180FB017C
:102F800000811181FA01C080D180FC018081918192
:102F9000C80ED91EF12CE12C8D919D910D90BC9104
:102FA000A02DA7019601281B390B4A0B5B0BC3010F
:102FB000B2010E949118F401EA0DFB1DE00FF11F10
:102FC0009F0150E040E02C193D094E095F090E9425
:102FD0009C19420E531E641E751E5092E7054092C6
:102FE000E605F3CE9C0124513109273D314060F4C0
:102FF0008091E6059091E705E981FA81EE5CF94F51
:10300000918380830C94B60F9C012B5E3140283253
:10301000310528F48091E6059091E70581CD835133
:103020009240873D914020F3E981FA81E853FA4FBD
:1030300020813181AFEFBFE00E94F0192EEF33E025
:1030400040E050E00E949C1989819A818E5C994FE2
:10305000DC0111963C932E930C94B60F88309105A9
:1030600011F40C941B0C89809A80880C991CF40133
:10307000E853FA4F20813181A4014A5F594F5A83A6
:103080004983DA014D915C9111974217530711F46E
:103090000C941B0C208131812D933C9311110C94C5
:1030A0000F0DFC01EE0FFF1FE05FF94F209160074D
:1030B0003091610731832083825F9E4F21E0FC01C4
:1030C00020830C941B0C89809A80880C991CF40135
:1030D000E853FA4F8081918194012A5F394F3A83F6
:1030E0002983D9012D913C912817390711F40C94AB
:1030F0001B0C80819181A981BA818D939C93208141
:1031000031818091000190E0FC01EE0FFF1FE4523D
:10311000FA4F31832083845F994FFC0110830C9414
:103120001B0CDB018F939F930E94BB19BF91AF9142
:10313000A29F800D911DA39F900DB29F900D112411
:103140000895991B79E004C0991F961708F0961B03
:10315000881F7A95C9F780950895AA1BBB1B51E17A
:1031600007C0AA1FBB1FA617B70710F0A61BB70BF7
:10317000881F991F5A95A9F780959095BC01CD019C
:10318000089597FB072E16F4009407D077FD09D019
:103190000E94AD1807FC05D03EF4909581959F4F95
:1031A0000895709561957F4F08950E94F019B7FFBB
:1031B0000895821B930B0895EE0FFF1F0590F49165
:1031C000E02D09948F929F92AF92BF92CF92DF929F
:1031D000EF92FF92CF93DF93EC01688179818A812E
:1031E0009B81611571058105910521F464E279EDFA
:1031F0008BE597E02DE133EF41E050E00E949C1910
:1032000049015A019B01AC01A7EAB1E40E94BB1934
:103210006B017C01ACEEB4EFA50194010E94C919C9
:10322000C60ED71EE81EF91EF7FE06C081E0C81ABA
:10323000D108E10880E8F80AC882D982EA82FB82D4
:10324000C701B6019F77DF91CF91FF90EF90DF909C
:10325000CF90BF90AF909F908F9008958F929F9244
:10326000AF92BF92CF92DF92EF92FF9260911A01DC
:1032700070911B0180911C0190911D0161157105D8
:103280008105910521F464E279ED8BE597E02DE16C
:1032900033EF41E050E00E949C1949015A019B0123
:1032A000AC01A7EAB1E40E94BB196B017C01ACEE52
:1032B000B4EFA50194010E94C919C60ED71EE81EDD
:1032C000F91EF7FE06C081E0C81AD108E10880E8BF
:1032D000F80AC0921A01D0921B01E0921C01F092F0
:1032E0001D01C701B6019F77FF90EF90DF90CF904F
:1032F000BF90AF909F908F90089560931A01709344
:103300001B0180931C0190931D010895F999FECF34
:1033100092BD81BDF89A992780B50895262FF99915
:10332000FECF1FBA92BD81BD20BD0FB6F894FA9AA8
:10333000F99A0FBE01960895052E97FB1EF400948E
:103340000E94B31957FD07D00E94CE1907FC03D085
:103350004EF40C94B31950954095309521953F4FFC
:103360004F4F5F4F089590958095709561957F4F71
:103370008F4F9F4F08950E94F019A59F900DB49F05
:10338000900DA49F800D911D11240895B7FF0C94FA
:10339000BB190E94BB19821B930B0895A1E21A2E40
:1033A000AA1BBB1BFD010DC0AA1FBB1FEE1FFF1FE9
:1033B000A217B307E407F50720F0A21BB30BE40B39
:1033C000F50B661F771F881F991F1A9469F7609580
:1033D0007095809590959B01AC01BD01CF0108953A
:1033E000A29FB001B39FC001A39F700D811D112446
:1033F000911DB29F700D811D1124911D089550588B
:10340000BB27AA270E94171A0C94911B0E94831BAA
:1034100038F00E948A1B20F039F49F3F19F426F4FB
:103420000C94801B0EF4E095E7FB0C947A1BE92FBB
:103430000E94A21B58F3BA17620773078407950707
:1034400020F079F4A6F50C94C41B0EF4E0950B2E35
:10345000BA2FA02D0B01B90190010C01CA01A001E6
:103460001124FF27591B99F0593F50F4503E68F141
:103470001A16F040A22F232F342F4427585FF3CF82
:10348000469537952795A795F0405395C9F77EF453
:103490001F16BA0B620B730B840BBAF09150A1F09C
:1034A000FF0FBB1F661F771F881FC2F70EC0BA0F22
:1034B000621F731F841F48F4879577956795B795AA
:1034C000F7959E3F08F0B0CF9395880F08F09927A5
:1034D000EE0F9795879508950E94561B08F481E09A
:1034E00008950E94851A0C94911B0E948A1B58F023
:1034F0000E94831B40F029F45F3F29F00C947A1B53
:1035000051110C94C51B0C94801B0E94A21B68F3E4
:103510009923B1F3552391F3951B550BBB27AA278C
:1035200062177307840738F09F5F5F4F220F331FC6
:10353000441FAA1FA9F335D00E2E3AF0E0E832D08E
:1035400091505040E695001CCAF72BD0FE2F29D091
:10355000660F771F881FBB1F261737074807AB0763
:10356000B0E809F0BB0B802DBF01FF2793585F4FD8
:103570003AF09E3F510578F00C947A1B0C94C51BD1
:103580005F3FE4F3983ED4F3869577956795B795BA
:10359000F7959F5FC9F7880F911D9695879597F9C5
:1035A0000895E1E0660F771F881FBB1F621773073E
:1035B0008407BA0720F0621B730B840BBA0BEE1F53
:1035C00088F7E09508950E94EA1A6894B1110C9466
:1035D000C51B08950E94AA1B88F09F5798F0B92F29
:1035E0009927B751B0F0E1F0660F771F881F991F38
:1035F0001AF0BA95C9F714C0B13091F00E94C41BFB
:10360000B1E008950C94C41B672F782F8827B85F0A
:1036100039F0B93FCCF3869577956795B395D9F78F
:103620003EF490958095709561957F4F8F4F9F4F99
:103630000895E89409C097FB3EF4909580957095A5
:1036400061957F4F8F4F9F4F9923A9F0F92F96E9EE
:10365000BB279395F695879577956795B795F11163
:10366000F8CFFAF4BB0F11F460FF1BC06F5F7F4F00
:103670008F4F9F4F16C0882311F096E911C0772312
:1036800021F09EE8872F762F05C0662371F096E81B
:10369000862F70E060E02AF09A95660F771F881FEA
:1036A000DAF7880F9695879597F90895990F00088E
:1036B000550FAA0BE0E8FEEF16161706E807F90704
:1036C000C0F012161306E407F50798F0621B730B9F
:1036D000840B950B39F40A2661F0232B242B252B20
:1036E00021F408950A2609F4A140A6958FEF811DC3
:1036F000811D089597F99F6780E870E060E0089564
:103700009FEF80EC089500240A94161617061806F9
:103710000906089500240A941216130614060506D5
:103720000895092E0394000C11F4882352F0BB0F66
:1037300040F4BF2B11F460FF04C06F5F7F4F8F4FC9
:103740009F4F089557FD9058440F551F59F05F3F04
:1037500071F04795880F97FB991F61F09F3F79F0B3
:1037600087950895121613061406551FF2CF469535
:10377000F1DF08C0161617061806991FF1CF8695B7
:103780007105610508940895E894BB27662777279B
:10379000CB0197F908950E94561B08F48FEF089506
:1037A0000E94E31B0C94911B0E94831B38F00E9423
:1037B0008A1B20F0952311F00C947A1B0C94801B2B
:1037C00011240C94C51B0E94A21B70F3959FC1F39A
:1037D000950F50E0551F629FF001729FBB27F00DBF
:1037E000B11D639FAA27F00DB11DAA1F649F662714
:1037F000B00DA11D661F829F2227B00DA11D621F63
:10380000739FB00DA11D621F839FA00D611D221F1C
:10381000749F3327A00D611D231F849F600D211D00
:10382000822F762F6A2F11249F5750409AF0F1F083
:1038300088234AF0EE0FFF1FBB1F661F771F881FEC
:1038400091505040A9F79E3F510580F00C947A1B8F
:103850000C94C51B5F3FE4F3983ED4F386957795AF
:103860006795B795F795E7959F5FC1F7FE2B880F92
:10387000911D9695879597F908950E94561B880B80
:08388000990B0895F894FFCFA5
:103888000A0101010901010100020002000201010F
:1038980001090001010101010100010000001000FF
:1038A8000F000E0003000600050022002400260079
:1038B8001C001E002000160018001A00100012003C
:1038C80014000A000C000E000400060008000000A6
:1038D8000100020000080C081908250832083E08F3
:1038E8004B085808640871087D088A089608A308D8
:1038F800AF08BC08C808D508E108EE08FA080709A7
:10390800130920092C093909450951095E096A0971
:10391800770983098F099C09A809B409C109CD0948
:10392800D909E509F109FE090A0A160A220A2E0A26
:103938003A0A460A520A5E0A6A0A760A820A8E0A0F
:103948009A0AA60AB20ABE0ACA0AD50AE10AED0A02
:10395800F80A040B100B1B0B270B320B3E0B490B01
:10396800550B600B6C0B770B820B8E0B990BA40B12
:10397800AF0BBA0BC60BD10BDC0BE70BF20BFD0B35
:10398800070C120C1D0C280C330C3D0C480C520C67
:103998005D0C680C720C7C0C870C910C9B0CA60CB3
:1039A800B00CBA0CC40CCE0CD80CE20CEC0CF60C17
:1039B800000D0A0D130D1D0D270D300D3A0D430D89
:1039C8004D0D560D600D690D720D7B0D840D8E0D1C
:1039D800970D9F0DA80DB10DBA0DC30DCC0DD40DCB
:1039E800DD0DE50DEE0DF60DFE0D070E0F0E170E93
:1039F8001F0E270E2F0E370E3F0E470E4F0E560E78
:103A08005E0E660E6D0E750E7C0E830E8B0E920E7C
:103A1800990EA00EA70EAE0EB50EBC0EC20EC90EA4
:103A2800D00ED60EDD0EE30EEA0EF00EF60EFC0EEC
:103A3800020F080F0E0F140F1A0F200F250F2B0F50
:103A4800310F360F3B0F410F460F4B0F500F550FDD
:103A58005A0F5F0F640F690F6D0F720F770F7B0F8F
:103A6800800F840F880F8C0F900F940F980F9C0F66
:103A7800A00FA40FA80FAB0FAF0FB20FB60FB90F5F
:103A8800BC0FBF0FC20FC50FC80FCB0FCE0FD10F82
:103A9800D30FD60FD80FDB0FDD0FDF0FE10FE30FCA
:103AA800E50FE70FE90FEB0FED0FEE0FF00FF10F3A
:103AB800F30FF40FF50FF70FF80FF90FFA0FFB0FCD
:103AC800FB0FFC0FFD0FFD0FFE0FFE0FFE0FFF0F8C
:103AD800FF0FFF0FFF0F0000000030039402BD022C
:103AE8007D03EE02CC02E00200000000FA03F603B8
:103AF8000D0A0048692E2057656C636F6D65207448
:103B08006F20776F62626C652C2061206D6F647521
:103B18006C652062792066757A7A7973796E746833
:103B2800732E636F2E756B00546869732069732058
:103B380076657273696F6E20302E38206F66207339
:103B48006F6674776172652E204561726C79207694
:103B5800657273696F6E2C2064656D6F20666F7275
:103B6800204D616368696E612042726973746F6E7B
:103B7800696361203230313900436865636B2066C0
:103B88006F7220736F6674776172652075706461F7
:103B9800746573206174207777772E66757A7A79E1
:103BA80073796E7468732E636F2E756B2F776F62DF
:103BB800626C65004D49444920737570706F72746A
:103BC800207374696C6C20746F206164642E204FBC
:103BD800757470757420342073657420746F206D4B
:103BE8006978206F66206F746865722033002A2A0E
:103BF8002A2A2A2A2A2A2A2A2A00696E69746961C5
:103C08007465642C2077726974696E6720646566D0
:103C180061756C742076616C75657320004545503C
:103C2800524F4D20696E697469616C69736174697A
:103C38006F6E2066696E6973686564004368616EBB
:103C48006E656C20002C2077617665466F726D205A
:103C5800697320002C207761766553686170652050
:103C6800697320002C20747765616B20302069739C
:103C78002020002C20747765616B20312069732027
:103C880020002C20747765616B2032206973202016
:103C9800002C206D6178416D702076616C7565200F
:103CA80069732020002C206D6178416D7020697344
:103CB8002020006E616E00696E66006F7666007681
:103CC8002000726574726967206D6F64652069737E
:103CD80020286368732033203220313A2920006578
:103CE8006E64206F66206C6F61642066726F6D2051
:083CF800454550524F4D0000FC
:107800000C94343C0C94513C0C94513C0C94513CE1
:107810000C94513C0C94513C0C94513C0C94513CB4
:107820000C94513C0C94513C0C94513C0C94513CA4
:107830000C94513C0C94513C0C94513C0C94513C94
:107840000C94513C0C94513C0C94513C0C94513C84
:107850000C94513C0C94513C0C94513C0C94513C74
:107860000C94513C0C94513C11241FBECFEFD8E036
:10787000DEBFCDBF11E0A0E0B1E0ECE9FFE702C060
:1078800005900D92A230B107D9F712E0A2E0B1E065
:1078900001C01D92AD30B107E1F70E942D3D0C945F
:1078A000CC3F0C94003C982F959595959595959582
:1078B000905D8F708A307CF0282F295A8091C0000B
:1078C00085FFFCCF9093C6008091C00085FFFCCF60
:1078D0002093C6000895282F205DF0CF982F809127
:1078E000C00085FFFCCF9093C6000895EF92FF92F1
:1078F0000F931F93EE24FF2487018091C00087FD22
:1079000017C00894E11CF11C011D111D81E4E8164B
:1079100082E4F8068FE0080780E0180770F3E09132
:107920000401F091050109958091C00087FFE9CF1E
:107930008091C6001F910F91FF90EF9008950E94D3
:10794000763C982F8091C00085FFFCCF9093C600B5
:1079500091362CF490330CF09053892F089597555D
:10796000892F08951F930E949F3C182F0E949F3CCF
:107970001295107F810F1F9108951F93182F882350
:1079800021F00E94763C1150E1F71F9108951F935A
:10799000182F0E94763C803249F0809103018F5F5E
:1079A000809303018530C1F01F9108958091C0003C
:1079B00085FFFCCF84E18093C6008091C00085FFE5
:1079C000FCCF1093C6008091C00085FFFCCF80E102
:1079D0008093C6001F910895E0910401F091050184
:1079E00009951F9108950E94763C803241F0809164
:1079F00003018F5F80930301853081F008958091AA
:107A0000C00085FFFCCF84E18093C6008091C00058
:107A100085FFFCCF80E18093C6000895E0910401CA
:107A2000F09105010995089540E951E08823A1F0FE
:107A30002D9A28EE33E0FA013197F1F721503040CA
:107A4000D1F72D9828EE33E0FA013197F1F7215064
:107A50003040D1F7815061F708953F924F925F9285
:107A60006F927F928F929F92AF92BF92CF92DF924E
:107A7000EF92FF920F931F93CF93DF93000080E16B
:107A80008093C4001092C50088E18093C10086E015
:107A90008093C2005098589A259A81E00E94143D24
:107AA00024E1F22E9EE1E92E85E9D82E0FE0C02ECA
:107AB00010E1B12EAA24A394B1E49B2EA6E58A2E50
:107AC000F2E57F2EE0E26E2E79E4572E63E5462E36
:107AD00050E5352E0E94763C8033B1F18133B9F107
:107AE000803409F46FC0813409F476C0823409F41B
:107AF00085C0853409F488C0803531F1823521F1A3
:107B0000813511F1853509F485C0863509F48DC0BC
:107B1000843609F496C0843709F403C1853709F423
:107B200072C1863709F466C0809103018F5F80932C
:107B30000301853079F6E0910401F0910501099582
:107B40000E94763C803351F60E94F33CC3CF0E94E2
:107B5000763C803249F78091C00085FFFCCFF092DF
:107B6000C6008091C00085FFFCCF9092C600809136
:107B7000C00085FFFCCF8092C6008091C00085FFC9
:107B8000FCCF7092C6008091C00085FFFCCF609250
:107B9000C6008091C00085FFFCCF5092C600809146
:107BA000C00085FFFCCF4092C6008091C00085FFD9
:107BB000FCCF3092C6008091C00085FFFCCFB09210
:107BC000C60088CF0E94763C863808F4BDCF0E945C
:107BD000763C0E94F33C7ECF0E94763C803809F4CC
:107BE0009CC0813809F40BC1823809F43CC1883942
:107BF00009F48FC080E00E94C73C6CCF84E10E94F2
:107C0000BD3C0E94F33C66CF85E00E94BD3C0E94D3
:107C1000F33C60CF0E94763C809306010E94763C44
:107C2000809307010E94F33C55CF0E94763C80333D
:107C300009F41DC183E00E94BD3C80E00E94C73C66
:107C400049CF0E94763C809309020E94763C809343
:107C5000080280910C028E7F80930C020E94763C79
:107C6000853409F415C18091080290910902892B8D
:107C700089F000E010E00E94763CF801E85FFE4FDA
:107C800080830F5F1F4F80910802909109020817AF
:107C9000190788F30E94763C803209F045CF809125
:107CA0000C0280FF01C16091060170910701660F0F
:107CB000771F7093070160930601A0910802B091AD
:107CC00009021097C9F0E8E0F1E09B01AD014E0F09
:107CD0005F1FF999FECF32BD21BD819180BDFA9A17
:107CE000F99A2F5F3F4FE417F50799F76A0F7B1F4B
:107CF00070930701609306018091C00085FFFCCF5F
:107D0000F092C6008091C00085FFFCCFB092C60003
:107D1000E1CE83E00E94C73CDDCE82E00E94C73CFA
:107D2000D9CE0E94763C809309020E94763C8093D3
:107D300008028091060190910701880F991F909386
:107D40000701809306010E94763C853409F4A6C0A1
:107D500080910C028E7F80930C020E94763C8032D0
:107D600009F0B8CE8091C00085FFFCCFF092C6002C
:107D7000609108027091090261157105B9F140E046
:107D800050E080910C02A82FA170B82FB27011C0E2
:107D9000BB2309F45CC0E0910601F0910701319624
:107DA000F0930701E09306014F5F5F4F46175707B7
:107DB000E8F4AA2369F3F999FECF209106013091E6
:107DC000070132BD21BDF89A90B58091C00085FFB2
:107DD000FCCF9093C6002F5F3F4F30930701209355
:107DE00006014F5F5F4F4617570718F38091C00099
:107DF00085FDE5CE8091C00085FFF8CFE0CE81E023
:107E00000E94C73C67CE0E94763C803209F08CCE3F
:107E10008091C00085FFFCCFF092C6008091C00029
:107E200085FFFCCFE092C6008091C00085FFFCCFAB
:107E3000D092C6008091C00085FFFCCFC092C600E2
:107E40008091C00085FFFCCFB092C60043CEE09188
:107E50000601F091070194918091C00085FFFCCF4D
:107E60009093C6009CCF80E10E94C73C33CE0E9415
:107E7000763C0E94763C182F0E94763C112309F430
:107E800083C0113009F484C08FE00E94C73C22CE29
:107E900080910C02816080930C02E5CE80910C02EF
:107EA000816080930C0259CF809107018823880F4D
:107EB000880B8A2180930B02809106019091070123
:107EC000880F991F90930701809306018091080203
:107ED00080FF09C080910802909109020196909359
:107EE000090280930802F894F999FECF1127E091D6
:107EF0000601F0910701C8E0D1E08091080290915D
:107F00000902103091F40091570001700130D9F34B
:107F100003E000935700E89500915700017001308D
:107F2000D9F301E100935700E89509901990009169
:107F3000570001700130D9F301E000935700E89534
:107F40001395103498F011270091570001700130FB
:107F5000D9F305E000935700E895009157000170B0
:107F60000130D9F301E100935700E895329602976A
:107F700009F0C7CF103011F00296E5CF112480919F
:107F8000C00085FFB9CEBCCE8EE10E94C73CA2CD19
:0C7F900085E90E94C73C9ECDF894FFCF0D
:027F9C00800063
:040000030000780081
:00000001FF
